:020000040800F2
:10000000D00600202902000831020008330200084F
:10001000350200083702000839020008000000001D
:100020000000000000000000000000003B0200088B
:100030003D020008000000003F02000845060008DD
:10004000430200084302000843020008430200087C
:10005000430200084302000843020008430200086C
:10006000430200084302000843020008430200085C
:10007000430200084302000843020008430200084C
:10008000430200084302000843020008430200083C
:10009000430200084302000843020008430200082C
:1000A000430200084302000843020008430200081C
:1000B000430200081D070008F1070008430200087A
:1000C00043020008430200084302000843020008FC
:1000D00043020008430200084302000843020008EC
:1000E00043020008430200084302000843020008DC
:1000F00043020008430200084302000843020008CC
:1001000043020008430200084302000843020008BB
:1001100043020008430200084302000843020008AB
:10012000430200084302000843020008430200089B
:10013000430200084302000843020008430200088B
:10014000430200084302000843020008430200087B
:10015000430200084302000843020008430200086B
:10016000430200084302000843020008430200085B
:10017000430200084302000843020008430200084B
:10018000430200084302000800F002F800F03CF8C7
:100190000AA090E8000C82448344AAF10107DA45E2
:1001A00001D100F031F8AFF2090EBAE80F0013F0F8
:1001B000010F18BFFB1A43F0010318471C1E000073
:1001C0003C1E0000103A24BF78C878C1FAD8520704
:1001D00024BF30C830C144BF04680C6070470000C1
:1001E0000023002400250026103A28BF78C1FBD840
:1001F000520728BF30C148BF0B6070471FB501F0E0
:100200004FFE1FBD10B510BD00F044F81146FFF7BA
:10021000F5FF01F0BDF800F062F803B4FFF7F2FF5C
:1002200003BC00F063F80000094880470948004714
:10023000FEE7FEE7FEE7FEE7FEE7FEE7FEE7FEE796
:10024000FEE7FEE704480549054A064B70470000F3
:10025000B506000889010008D0000020D006002063
:10026000D0020020D002002070477047704710B5C0
:1002700000F008F8006810BD10B5044600F002F860
:10028000046010BD004870476C00002000487047B3
:100290006C0000207546FFF7F9FFAE460500694681
:1002A000534620F00700854618B020B5FFF7CAFF77
:1002B000BDE820404FF000064FF000074FF0000867
:1002C0004FF0000B21F00701AC46ACE8C009ACE8E8
:1002D000C009ACE8C009ACE8C0098D4670470446C7
:1002E000AFF300802046FFF798FF00000149182077
:1002F000ABBEFEE7260002007047F0B50A460021BB
:100300000023002400BF3DE0012505FA01F3156834
:1003100005EA03049C4234D105684F000326BE4021
:10032000B543056015794E00B54006683543056054
:100330001579012D02D01579022D16D185684F004F
:100340000326BE40B543856055794E00B5408668AA
:1003500035438560456801268E40B5434560456854
:1003600096798E40B6B235434560C5684F00032686
:10037000BE40B543C560D5794E00B540C66835432B
:10038000C560491C1029BFD3F0BDF0B5002300247F
:100390004D07ED0E02FA05F3CE1000F1200555F8D9
:1003A00026504E07F70E0F26BE40B543CF1000F182
:1003B000200646F82750CE1000F1200555F82650AB
:1003C00045EA0304CE1000F1200545F82640F0BDB3
:1003D00000F01F02012191404209920002F1E02247
:1003E000C2F800117047000010B5002807DA0A07AC
:1003F000140E054A00F00F031B1FD45403E00A0734
:10040000130E024A135410BD18ED00E000E400E0A2
:1004100029B1064A12680243044B1A6004E0034AF9
:1004200012688243014B1A60704700003038024066
:1004300029B1064A12680243044B1A6004E0034AD9
:1004400012688243014B1A60704700004038024036
:1004500029B1064A12680243044B1A6004E0034AB9
:1004600012688243014B1A60704700004438024012
:10047000F0B5002100220024022500260223324F7D
:100480003F6807F00C0121B1042905D0082937D1B4
:1004900005E02E4F076036E02D4F076033E02A4F0E
:1004A0003F1F3F68C7F38056274F3F1F3F6807F045
:1004B0003F036EB1264FB7FBF3F7DFF88CC0ACF10A
:1004C000040CDCF800C0CCF3881C07FB0CF40CE037
:1004D0001E4FB7FBF3F7DFF870C0ACF1040CDCF88B
:1004E00000C0CCF3881C07FB0CF4174F3F1F3F687C
:1004F000C7F301477F1C7D00B4FBF5F7076002E0FE
:10050000124F076000BF00BF0F4F3F6807F0F001B8
:100510000909104F7A5C0768D74047600A4F3F6867
:1005200007F4E051890A0B4F7A5C4768D74087602F
:10053000054F3F6807F46041490B064F7A5C4768F6
:10054000D740C760F0BD0000083802400024F40026
:1005500000127A000C0000200CB5002001900090E1
:100560003448006840F480303249086000BF3148A8
:10057000006800F4003000900198401C0190009841
:1005800018B90198B0F5A04FF1D12A48006800F4DD
:10059000003010B10120009001E000200090009890
:1005A000012846D123484030006840F0805021495E
:1005B000403108602048006840F440401E4908600F
:1005C0001C48083000681B4908310860084600686C
:1005D00040F4004008600846006840F4A0500860FD
:1005E0001648091F0860081F006840F08070091F46
:1005F000086000BF0F48006800F000700028F9D0C4
:1006000040F205700E4908600A480830006820F082
:1006100003000849083108600846006840F00200FD
:10062000086000BF03480830006800F00C0008288C
:10063000F8D10CBD0038024000700040042A400789
:10064000003C0240002023E0174911F8301001B9A6
:100650001DE0154901EBC001496849B1124901EBA0
:10066000C0014968491E104A02EBC00251600DE00A
:100670000D4911F83020012191400C4A12681143B4
:100680000A4A11600021084A02F8301000BF401CDD
:100690000A28D9DB0648006820B105480068401EDA
:1006A00003490860704700001C0000200000002083
:1006B0000400002010B51548006840F4700013498C
:1006C00008601348006840F00100114908600020EC
:1006D0000F49083108600E4800680E4908400C496F
:1006E00008600D48091D0860081F006820F480207C
:1006F000091F0860002006490C310860FFF72CFF35
:100700004FF0006001498039086010BD88ED00E0BD
:1007100000380240FFFFF6FE1030002410B52DED2A
:100720000C8B0121294800F0CDF82949098848009F
:1007300001F097F941EC1D0B9FED260B53EC102BAC
:1007400001F0BAF941EC1C0B9FED240B53EC102B7C
:1007500001F000F841EC1B0BB0EE4B0AF0EE6B0A17
:1007600000F092F9B0EE40AAF0EE60AA9FED1D0BEA
:1007700053EC102B51EC1A0B00F044FF41EC190B19
:1007800000F00EFF08EE100A9FED180A68EE000A4E
:10079000B3EE041A80EE810AF0EE000A80EE201A11
:1007A000BCEEC10A10EE104A08483C30046008480C
:1007B0000088401C0649088008460088B0F57A7F0A
:1007C00001DB00200880BDEC0C8B10BD0004004054
:1007D000080000201F85EB51B81E094000000000F2
:1007E00000408F40000000000000F03F00007A440D
:1007F00010B52DED0C8B0121294800F063F8294933
:100800000988480001F02DF941EC1D0B9FED260BE6
:1008100053EC102B01F050F941EC1C0B9FED240B15
:1008200053EC102B00F096FF41EC1B0BB0EE4B0A83
:10083000F0EE6B0A00F028F9B0EE40AAF0EE60AAE4
:100840009FED1D0B53EC102B51EC1A0B00F0DAFE50
:1008500041EC190B00F0A4FE08EE100A9FED180AF7
:1008600068EE000AB3EE041A80EE810AF0EE000A88
:1008700080EE201ABCEEC10A10EE104A08483C3047
:10088000046008480088401C064908800846008823
:10089000B0F57A7F01DB00200880BDEC0C8B10BD29
:1008A000000800400A0000201F85EB51B81E0940D7
:1008B0000000000000408F40000000000000F03FFA
:1008C00000007A44CA430282704721B1028842F094
:1008D0000102028004E002884FF6FE731A40028093
:1008E00070471AB183890B43838102E083898B436C
:1008F0008381704770B5002400220023058C4FF6D9
:10090000FF6635400584028C8388848B4FF68F7593
:100910002C404FF6FC752C400D882C434FF6FF55AC
:100920002A408D894FF6FF7606EA05252A434D8831
:1009300006EA05252A43154DA84202D0144DA842C7
:100940001DD14FF2FF752A40CD894FF6FF7606EA9A
:1009500005252A434FF6FF352A408D8806EA0525EE
:100960002A434EF6FF752B404DF6FF752B400D8A3E
:1009700006EA05152B434D8A06EA05152B438380AD
:1009800084838D68C563028470BD0000000001404F
:10099000000401400A460021818B4FF6F77319408D
:1009A00011438183704700210180418081808160F3
:1009B0008181C1810182418270470000002202884A
:1009C000184B98420ED0184B98420BD0B0F1804F84
:1009D00008D0164B984205D0154B984202D0154BC3
:1009E000984204D14FF68F731A404B881A43124B2A
:1009F000984207D0114B984204D04FF6FF431A405B
:100A00000B891A4302804B68C3620B880385054B30
:100A1000984202D0044B984201D18B7A038601237D
:100A20008382704700000140000401400004004040
:100A300000080040000C004000100040001400407E
:100A40004FF0FF31416000210180018141808172BE
:100A5000704703B401984100009850EAC12018BFC4
:100A600004204A0D18BF40F0010040F2FF72B2EBC3
:100A7000515F08BF40F00200012808BF052002B006
:100A8000704700000000000010B52F499FED2C1B9F
:100A90002DED020B84B0059820F000408842DCBFA9
:100AA00000209DED040B32DD2849884209D10498CD
:100AB00040B94FF00100FFF7DFFB00F03DFC06B04E
:100AC00010BD05DB9DED040B00F02AFC06B010BD47
:100AD00068469DED040B00F03BF810F0030011D0C8
:100AE000012818D09DED021B9DED000B02281AD0A5
:100AF00000F04AFA51EC100B00F046FD06B041EC54
:100B0000100B10BD9DED021B9DED000B012000F0B0
:100B10006FFB06B010BD9DED021B9DED000B00F0BC
:100B200033FA06B010BD012000F062FB51EC100B4F
:100B300000F02AFD06B041EC100B10BD00000000D3
:100B40000000000000000000FB21E93F0000F07FF2
:100B50002DE9F14F04462DED020B2DED088B8AB0E7
:100B60009FEDE70B80ED020B139EE74826F0004552
:100B700085420ADC9DED120B002084ED000B0AB0CB
:100B8000BDEC088B03B0BDE8F08FE0489FEDE0AB13
:100B90009FEDE1BBA84247DDE14F9FEDE39B9FED59
:100BA000E48B9DED120B53EC1A2B51EC100B002E25
:100BB0001CDD01F08BF841EC100BBD4208D053EC6A
:100BC0001B2B51EC100B01F081F8C4E900010BE084
:100BD00053EC192B51EC100B01F078F853EC182B57
:100BE00001F074F8C4E900010120C8E700F00AFD33
:100BF00041EC100BBD4208D053EC1B2B51EC100BF9
:100C000000F000FDC4E900010BE053EC192B51EC9E
:100C1000100B00F0F7FC53EC182B00F0F3FCC4E9C8
:100C200000014FF0FF30AAE7C348A84279DB9DEDF1
:100C3000120B51EC100B00F09FFB41EC180B9FEDD9
:100C4000C00B53EC102B00F037FF9FEDBF1B53EC94
:100C5000112B00F0D7FC00F0D5FE074600F001FF95
:100C600041EC190B53EC1A2B00F026FF53EC182B18
:100C700001F020F841EC180B53EC1B2B51EC190B35
:100C800000F01AFFDFF8C8A241EC100B4FEA15582C
:100C90000125FA4453EC102B51EC180B01F016F817
:100CA000032DC4E900013DD0C1F30A5005EB451105
:100CB000A8EB00001139814234DA0AEB051BB0EED3
:100CC00048AA9BED000BF0EE68AA53EC102B51ECF8
:100CD000190B00F0F1FE41EC1B0B51EC1A0B53EC1D
:100CE0001B2B00F0F3FF41EC180B51EC1A0B53ECEB
:100CF000182B00F0EBFF53EC1B2B00F0E7FF9BEDF4
:100D0000020B41EC1A0B53EC102B51EC190B00F0B9
:100D1000D3FE53EC1A2B00F0D9FF41EC100B6D1CE5
:100D2000B8E70EE0002EA8BF3846BFF628AF94ED16
:100D3000000B51EC100B00F027FCC4E900017842D5
:100D40001DE7C6F3130040F4801EC6F30A50A0F25C
:100D5000F530471100F01F05C5F12000DDF848B05F
:100D600008900020069007900520EC467949002D58
:100D700007EB0002794408BF51F8221009D051F85E
:100D8000223001EB8201AB404A68089922FA01F156
:100D90001943A1FB0E26A1FB0B131A449A4234BF40
:100DA0000123002303EB06080CEB8003D3E901A623
:100DB0000E448E4234BF0121002192448A4411B175
:100DC000924502D903E0924501D2012100E00021C1
:100DD000C3E901A641444CF82010011EA0F1010016
:100DE000C4DC029800F10050850F0298DDE903672A
:100DF0008000DDF8148000F034FE41EC1A0B304620
:100E000000F046FE9FED541B53EC112B00F054FEF6
:100E100041EC1B0B384600F03BFE9FED511B53ECA1
:100E2000112B00F049FE41EC180B404600F030FE5B
:100E30009FED4D1B53EC112B00F03EFE41EC190BC6
:100E400051EC180B53EC192B00F0DCFB53EC1B2B73
:100E500000F0D8FB53EC1A2B00F0D4FBCDE90801CD
:100E6000002008909DED080B53EC1A2B51EC100B51
:100E700000F02CFF53EC1B2B00F028FF53EC182B39
:100E800000F024FF53EC192B00F014FF9FED381BEA
:100E900053EC112B00F010FE9FED370B41EC180BBB
:100EA00053EC102B9DED080B51EC100B00F004FEE1
:100EB00053EC182B00F0A6FB9FED310B41EC180B07
:100EC00053EC102B9DED080B51EC100B00F0F4FDD2
:100ED00053EC182B00F096FB41EC100B139810F01C
:100EE000004F06D06D4251EC100B00F04DFB41EC71
:100EF000100B284684ED000B41E6000000000000C6
:100F00000000000000000000FB21E93F7CD9024006
:100F100000004054FB21F93F3163621A61B4D03DB7
:100F2000FB21F93F000000000000601A61B4D03DD1
:100F30007370032E8A19A33BFB2139410000000086
:100F400083C8C96D305FE43F000000000000E03F4F
:100F500052120000A0110000000000000000103E2E
:100F6000000000000000103C000000000000103AEB
:100F7000182D4454FB21F93D3326A611460B113C94
:100F800000000054FB21F93D10B52DED040B2DEDB3
:100F9000088B82B0B0EE419AF0EE619A0B9820F087
:100FA00000449FED4BABB4F1795F11DA9DED0A0B74
:100FB00051EC100B00F026FD002801BFB0EE4A0AEC
:100FC000F0EE6A0A02B0BDEC088B04BF04B010BD9D
:100FD0009DED0A0B53EC102B51EC100B00F06CFD47
:100FE00041EC180B3C480621B0EE480AF0EE680AC6
:100FF000784400F081F853EC182B51EC100B00F002
:101000005BFD9DED0A0B41EC1B0B53EC192B51ECD6
:10101000100B00F051FD41EC190B53EC1B2B51EC64
:10102000180B00F049FD53EC192B00F04FFE9FED1B
:101030002C0B41EC190B53EC102B51EC180B00F05E
:101040003BFD41EC100B2848844210DA53EC192B7D
:1010500051EC100B00F03AFE53EC1A2B00F02AFE74
:1010600041EC100B02B0BDEC088B04B010BD1F4862
:10107000A042BCBF9FED1E1B8DED001B06DBA4F53F
:1010800000100190002000909DED001B51EC100B12
:1010900053EC112B00F01AFE9DED000B41EC180BE8
:1010A00053EC102B51EC1A0B00F010FE41EC1A0B14
:1010B00053EC192B51EC180B00F008FE53EC1A2BD3
:1010C00000F0F8FD41EC100BCCE700000000000040
:1010D000000000000000F03FC40E0000000000000F
:1010E000000000000000E03F3333D33F0000E93F41
:1010F000000000000000D23F70B504462DED028BC9
:101100004D1E00EBC500B0EE408AF0EE608A90ED17
:10111000000B35F0060017D053EC182B51EC100BD8
:1011200000F0CAFC41EC100B6D1E04EBC50090ED05
:10113000001B51EC100B53EC112B00F063FA41EC47
:10114000100B35F00600E7D1022D36D0042D1CD04F
:10115000062D1CBFBDEC028B70BD53EC182B51EC5F
:10116000100B00F0A9FC94ED0A1B53EC112B00F0BE
:1011700049FA53EC182B00F09FFC94ED081B53EC3C
:10118000112B00F03FFA41EC100B53EC182B51ECF3
:10119000100B00F091FC94ED061B53EC112B00F0AA
:1011A00031FA53EC182B00F087FC94ED040B53EC50
:1011B000102B00F027FA41EC100B53EC182B51ECDC
:1011C000100B00F079FC94ED021B53EC112B00F096
:1011D00019FA53EC182B00F06FFC94ED001B53EC44
:1011E000112B00F00FFABDEC028B41EC100B70BD1F
:1011F00031B504462DED040B2DED0A8BB0EE41BA4E
:10120000F0EE61BA0B989DED0A0B20F00040B0F1B2
:10121000795F0DDA51EC100BFFF71BFC042808BFB7
:1012200000F09AF89DED0A0BBDEC0A8B05B030BDBD
:1012300053EC102B51EC100B00F03EFC41EC180B62
:101240009DED0A0B53EC182B51EC100B00F034FC05
:1012500041EC190B2C48B0EE480AF0EE680A052163
:101260007844FFF749FF9FED2ACBB0EE40AAF0EE9D
:1012700060AA9CB353EC1C2B51EC190B00F01CFC26
:1012800041EC1C0B53EC1A2B51EC190B00F014FC25
:101290009FED210B41EC190B53EC102B51EC1B0B68
:1012A00000F00AFC53EC192B00F010FD53EC182B46
:1012B00000F002FC53EC1B2B00F008FD53EC1C2B40
:1012C00000F004FD9DED0A1B53EC112B00F0F2FC25
:1012D000BDEC0A8B05B041EC100B30BDFFE753ECC1
:1012E0001A2B51EC180B00F0E7FB53EC1C2B00F011
:1012F00089F953EC192B00F0DFFB9DED0A1B53EC31
:10130000112B00F07FF9E3E74C0D00000000000016
:10131000495555555555C5BF000000000000E03F38
:1013200010B553EC102B51EC100B00F06BF941ECA5
:10133000100B10BD000000009FED050B10B553EC25
:10134000102B51EC100B00F005FA41EC100B10BD06
:1013500000000000000000009FED050B10B553ECED
:10136000102B51EC100B00F0A7FB41EC100B10BD43
:10137000000000000000001082B0CDE9000121F063
:10138000004001909DED000B02B051EC100B704736
:101390001FB56846FFF76CF84FF47A720098B0FBFF
:1013A000F2F1481EB0F1807F00D31BE0481E4FF0E1
:1013B000E022506150170F22002807DA13071D0E94
:1013C0000F4B00F00F04241F1D5503E013071C0EE4
:1013D0000C4B1C5400BF00204FF0E022906107200E
:1013E000106100BF00F010F8002000E0401C40F643
:1013F000B8318842FADB00F067F800BFFEE7000072
:1014000018ED00E000E400E000B58BB001217F2082
:10141000FEF7FEFF01210F20FFF70AF801218803E4
:10142000FFF716F8022208212548FEF7AEFF02203A
:101430008DF8280000208DF82A004FF48070099064
:1014400000208DF82B0003208DF8290009A91C48E5
:10145000FEF753FF06A8FFF7F3FA0020ADF81A00D5
:101460005320ADF818003120079006A91548FFF762
:10147000A5FA01A8FFF797FA00200390ADF8100035
:101480006020ADF804000120ADF8060001A90D4868
:10149000FFF730FA08210B48FFF77CFA01221146CA
:1014A0000848FFF71EFA1D20FEF792FF02211D20BB
:1014B000FEF79AFF01210348FFF707FA0BB000BDC2
:1014C000000802400004004000B58BB001217F20DD
:1014D000FEF79EFF01210F20FEF7AAFF01218803DE
:1014E000FEF7B6FF02220E212548FEF74EFF02202E
:1014F0008DF8280000208DF82A004FF480400990D4
:1015000000208DF82B0003208DF8290009A91C4824
:10151000FEF7F3FE06A8FFF793FA0020ADF81A00D5
:101520005320ADF818003120079006A91548FFF7A1
:1015300045FA01A8FFF737FA00200390ADF8100034
:101540006020ADF804000120ADF8060001A90D48A7
:10155000FFF7D0F908210B48FFF71CFA01221146CA
:101560000848FFF7BEF91E20FEF732FF02211E20B9
:10157000FEF73AFF01210348FFF7A7F90BB000BDC2
:10158000000C02400008004081F00041704780F0EC
:101590000040704721F00041704720F00040704744
:1015A00021F00042A2F16052B2F5801F01F0004329
:1015B00028BFD2F17F6C0BD95FEA001C43EAC2025C
:1015C00042EB507018BF704728BF20F001007047F1
:1015D000B2F5801FBCBF184670474FEA410C1CF59E
:1015E000001F02D2084600F060BC70B500F00EFB90
:1015F00000000089FFF7F6BF4FF00040A0F5800023
:101600007047000010B591EA030F48BF83F0004314
:1016100000F16483841A71EB030C05D2121943EBB9
:101620000C03001B61EB0C01DFF824E14FEA1154BD
:10163000A4EB135C1EEA430F18BF9EEA445F73D00D
:1016400023EA0E03DCF1200E21EA045143F4801357
:1016500032D322FA0CFE10EB0E0023FA0CFE41EB03
:101660000E01CCF1200E03FA0EFE10EB0E0051F12C
:101670000001B1F5801FCCF1200E32D201EB0451F4
:1016800012FA0EF2BDE8104058BF7047401C38BF38
:101690005FEA420218BF7047002814BF20F0010023
:1016A00041F100014FEA410313F5001F38BF7047B5
:1016B000A1F1C04100F0F8BA012A43EB0302ACF1FA
:1016C000200CDCF11F0E32BF4FF0000E23FA0CF39A
:1016D00010EB030041EB0451B4EB115FD0D0A1EB50
:1016E000045101F5801149085FEA300001EB045113
:1016F0000ED350F1000038BF12FA0EFE08D1BDE83B
:101700001040C9E7401C38BF5FEA4202CAD1C3E7B4
:10171000BDE810404FEA410313F5001F38BF704782
:10172000A1F1C04100F0C0BA9EEA445F08D011EABE
:101730005E0FBDE8104004BF01F00041002070477B
:10174000BDE8104070B500F061FA00BF64FBBE3E1A
:101750000000E0FF2DE9C04130B4DFF8A0C23CEA50
:10176000111418BF3CEA131400F0EC8081EA030561
:101770001CEA111444EAD57418BF1CEA131500F0D2
:10178000C780A4EB05044FF0004545EAC12145EAB6
:10179000C32341EA505143EA525304F17F74994202
:1017A00004F500344FEAC0204FEAC22208BF90423D
:1017B00000F09C804FEA13650FF24016765D4FEA09
:1017C000134506FB05F7C7F1807706FB07F74FEADD
:1017D000D737A7FB03687642C8F58038A7FB06CE4B
:1017E00038BFA8F1010807FB08E64FF0000EA6FB82
:1017F000028CE6FB03CEDCF1000CCEF1004E38BFCC
:10180000AEF1010EA6FB0C584FF000074FF000059B
:10181000E6FB0E87A1FB08C6A0FB07CE16EB0E0663
:1018200045F10005E1FB076515F1E04E7EBFA4F52B
:1018300080345FEA46066D4116F1800745F10005E8
:101840004FEA17274FEA066647EA0567A6F1DE4624
:10185000B6F1805F4FEA15251FD9384624F0010CF8
:1018600005EBC471BCF1FE6F01EB0C1102D8F0BCAA
:10187000BDE8008124425CBF01F5801E9EEAC47F62
:1018800002D4F0BCBDE80081244238D4F0BCA1F100
:10189000C041BDE8004100F007BA4FEAD22242EA57
:1018A00043524FEAD323A7FB02864FEAD02040EAF7
:1018B000415007FB03661EEA0E0F4FEAD12105FBDC
:1018C000026658BFA6EB0056B6EB00564FEA520E22
:1018D0004EEAC37E18EB0E0E56EB530EBDD518EB39
:1018E00002085E417F1C55F10005B6E74FF48015F4
:1018F0004FF000074FF000064FF00008ADE7F0BCD6
:101900004FF0000001F1C04101F00041BDE800814D
:1019100011EA0C1F0CEA131500D00CE013EA0C1F9F
:1019200000F025804FF00000F0BC81EA030101F0D7
:101930000041BDE80081F0BCBDE8004181EA03013F
:1019400000F0B2B9F0BCBDE8004170B500F05EF93E
:10195000097EFC3E00F007B881EA03014FF0000069
:1019600001F00041704781EA030100F09DB9F0BC2D
:10197000BDE800414FF0000021497047FFFDFBF931
:10198000F7F5F4F2F0EEEDEBE9E8E6E4E3E1E0DEB2
:10199000DDDBDAD8D7D5D4D3D1D0CFCDCCCBCAC824
:1019A000C7C6C5C4C2C1C0BFBEBDBCBBBAB9B8B74B
:1019B000B6B5B4B3B2B1B0AFAEADACABAAA9A8A83E
:1019C000A7A6A5A4A3A3A2A1A09F9F9E9D9C9C9B0C
:1019D0009A999998979796959594939392919190B7
:1019E0008F8F8E8E8D8C8C8B8B8A89898888878748
:1019F0008685858484838382828181800000FF07BD
:101A00000000F87F4FEA41034FEA5353A3F5806388
:101A1000D3F11E03C8BFD3F1210C0CDD4FF00042FF
:101A200042EAC12242EA505232FA03FC8CEAE17CDB
:101A3000ACEBE1707047102BC4BF0020704703F57A
:101A4000787CBCF1FF3F04D06FF0004282EA2100B5
:101A5000704770B500F0DAF8499224800020704792
:101A6000F2E710F0004248BF4042B0FA80F310FAAB
:101A700003F10AD0C3F11D0303F580634FEA41501F
:101A800002EB035202EBD12170474FF00000704788
:101A9000B0FA80F310FA03F10AD0C3F11D0303F585
:101AA00080634FEA41504FEA035202EBD121704765
:101AB0004FF0000070470000DFF848C170B51CEA25
:101AC000111E1EBF1CEA13159EEA0C0F95EA0C0F9F
:101AD00000F06F8081EA030423EA4C134EEAD47EBF
:101AE00021EA4C1141F4801143F48013AE44A1FB70
:101AF000024CA0FB0365AEF17F7E361955EB0C0559
:101B0000A1FB034C4CF10003A0FB021C16EB0C06DE
:101B1000654153F10003094218BF46F0010613F472
:101B2000007F0BD14FEA03314FEA0530340341EA1D
:101B3000155140EA16506FF003020AE04FEAC32144
:101B40004FEAC520F40241EA555140EA56506FF081
:101B5000020202EB2E4201EB025585EACE710AD059
:101B60005FEA440C18BF24F0004450F1000041F13A
:101B7000000120EAD47040F2FE7C624500D270BDC4
:101B8000A84214BF4FF080444FF04044002E08BFDD
:101B90000024BEF1806FA8BFA1F1C041BDE8704034
:101BA00080F282804FF0000001F1C04101F000415D
:101BB00070479EEA0C0F0CEA131518BF95EA0C0F3C
:101BC00006D04FF0000081EA030E0EF0004170BD18
:101BD00000F01CF88900013E00F007B800F009B8D9
:101BE0004FEA430C5FEA5C5C08D081EA030100F035
:101BF0005BB84FEA410C5FEA5C5CF6D14FF0000045
:101C0000014970470000FF070000F87F0EF1020E47
:101C10002EF0030E5EF8046B364205D4012A43EB26
:101C2000030515F5001F12D8012841EB010C1CF526
:101C3000001F0CD80ED14FEAD17C15F5001F0CEB1C
:101C40004C0C0CF1020C08BF4CEBD37C04E04FF0C1
:101C5000080C01E04FEAD37C0CEB4C0526FA05F6A4
:101C600006F00706B6F1040C06D20EEB860CBDE8B2
:101C700070404CF0010C6047DFE80CF0090B0202E9
:101C80004FF000414FF00000A1F5002170BD194652
:101C90001046012851EB010418BFD4F5001484BF8D
:101CA000002001F0004170BD0808A0F500114FEAC6
:101CB0003101704791EA030F10B581F000413FF503
:101CC000A9AC83F0004300F009B8000010B591EA18
:101CD000030F48BF83F000433FF59CAC841A71EBBF
:101CE000030C07D212198CF0004C43EB0C03001BC1
:101CF00061EB0C01DFF8A4E14FEA1154A4EB135C93
:101D00001EEA430F18BF9EEA445F00F0B08023EA4A
:101D10006E03524221EA0451C3EB6E0338BF5B1ECF
:101D2000DCF1200E25D322FA0CFE10EB0E0043FA54
:101D30000CFE41EB0E01CCF1200E03FA0EFE10EB6F
:101D40000E0051F10001CCF1200E29D412FA0EF24E
:101D500001EB0451BDE8104058BF7047401C1CBF48
:101D6000B2F1004F704700280CBF491C20F0010061
:101D7000704712EB020E43EB030218BF4FF0010E47
:101D80004EEA4202ACF1200CDCF11E0E54D943FAAB
:101D90000CFE10EB0E0051F1FF31CCF11E0ED5D52B
:101DA0000EF1010E12FA0EFE404141EB010101EB72
:101DB000445C5FEA5C5C10D910EBDE7001EB04510F
:101DC00038BFBEF1004FBDE8104018BF7047002873
:101DD0000CBF491C20F00100704730D24FEAD42CD0
:101DE00011F5001124F400641BD0B1FA81F20B3A12
:101DF000A41AA41ED2F12003914030FA03F3194330
:101E0000904001EBCC71002C01EB0451BDE8104077
:101E1000A8BF704701F1C0414FF0000001F0004140
:101E20007047B0FA80F310FA03F100D110BDE41A44
:101E3000173C4805C90AE4E701EB045110BD4910FD
:101E400001EB0451BDE810404FEA300002E04FF0D2
:101E5000000170474A0008BF0042F8D0B2F5001FE9
:101E600028BF704701F000414FF0000070479EEA24
:101E7000445F07D011EA5E0FBDE8104004BF0021A7
:101E800000207047BDE8104070B5FFF7BFFE00BFEF
:101E900040DFF63E83F00041104670470000E0FF4F
:101EA0004FF04070E1EE100A7047FF2141EAD05038
:101EB000C0057047000000004C5555555555A53FCD
:101EC0007751C1166CC156BF9015CB19A001FA3ECF
:101ED000AD529C804F7E92BEC4B1B4BD9EEE213EF9
:101EE000D43888BEE9FAA8BD00004054FB21F93F70
:101EF0003163621A61B4D03D0000601A61B4D03D14
:101F00007370032E8A19A33B0000002E8A19A33B8D
:101F1000C14920259A837B390000000000000000A1
:101F20006E83F9A22915444ED15727FCC0DD34F544
:101F3000999562DB4190433CAB6351FE61C5BBDECA
:101F40003A6E24B7E0D24D42EA2E49061C92D109DE
:101F50001CEB1DFE3EA729B1F53582E88444BB2E5B
:101F600026709CE9417E5FB439D69139F4395383A8
:101F70008B5F849C3B28F9BDFF97F81F0F9805DE07
:101F80008B112FEF1F6D0A5ACF7E366DB709CB2705
:101F9000663F464F2DEA5F9EC7BA27757BF1E5EB9A
:101FA000F739073DEA92528AB15FFB6B085D8D1FDE
:101FB000A6F810111111813FD561C119A0012ABFE6
:101FC0007DFEB157E31DC73EEB9C2B8AE6E55ABE6A
:101FD0007CD5CF5A3AD9E53DF81F00080000002013
:101FE0001C000000C4010008142000081C00002090
:101FF000B4060000E001000800000000000000003E
:1020000000000000000000000102030401020304BC
:0420100006070809AE
:040000050800018965
:00000001FF
